:100925004175746F2042696C6C696E67204D616C0E
:1009350020002053686F7070696E67204361727480
:10094500200020202000436F756E7465723A2030B8
:10095500202020202020002057616974696E6720BF
:10096500466F722050726F647563740020202050AA
:10097500726F6475637420416464202020002050E8
:10098500726F647563742052656D6F766520002003
:1009950050726F6475637420657870697265642040
:0109A5000051
:020B4500C100ED
:0B0AED007FE87EFD120AF87FE87EFD26
:0B0AF800EF1FAC0670011E4C70F622D0
:100B2500C2858FA0D2877F147E00120AF8C2872261
:100B3500D2858FA0D2877F147E00120AF8C2872241
:100B0300C2867F38120B257F80120B257F0C020BC8
:010B130025BC
:100AA5008B0D8A0E890FAB0DAA0EA90F1209A66030
:100AB50013050FE50F7002050E14F91209A6FF12B2
:050AC5000B3580E22268
:100B14007F01120B257FC87E00120AF87F80020B2A
:010B240025AB
:100ACA00120B14120B037BFF7A097925120AA57FF0
:100ADA00C0120B257BFF7A097937120AA5120AED93
:030AEA00020B14E8
:090A26007F89120B25AF11AE10FF
:040A2F008E088F0995
:100A3300E4F50BF50C7B107A27E509450870077F71
:100A430030120B358053EB4A604FAE08AF09AD034C
:100A5300AC021209D18F0A7E00EF6006E50B70022B
:100A6300050BEF4E7004E50B6008E50A2430FF1216
:100A73000B35AF0A7E00AD03AC021209BFC3E50913
:100A83009FF509E5089EF5087C007D0AAF03AE02D9
:100A93001209D1AA06AB0780AD7BFF7A0979470219
:020AA3000AA5A2
:10080000C280120ACA7F80120B257BFF7A09794BBE
:10081000120AA57FC0120B257BFF7A09795C120AA8
:10082000A5120AED30B00320B1FA20B0270511E57A
:100830001170020510120A267FC0120B257BFF7A69
:10084000097971120AA5D2807F707E17120AF820EA
:10085000B0D280FB20B1CDE511451060C7E5111580
:100860001170021510120A26E5114510700FC28092
:100870007FC0120B257BFF7A097983800DC2807FB0
:10088000B1120B257BFF7A097994120AA57F707E3D
:0908900017120AF820B18D80FB5B
:030000000208995A
:0C089900787FE4F6D8FD7581200208E0AD
:1009A600BB010689828A83E0225002E722BBFE024F
:0909B600E32289828A83E4932282
:1009BF00EF8DF0A4A8F0CF8CF0A428CE8DF0A42E4C
:0209CF00FE2206
:1009D100BC000BBE0029EF8DF084FFADF022E4CC0A
:1009E100F875F008EF2FFFEE33FEEC33FCEE9DECD3
:1009F100984005FCEE9DFE0FD5F0E9E4CEFD22ED19
:100A0100F8F5F0EE8420D21CFEADF075F008EF2F62
:100A1100FFED33FD4007985006D5F0F222C398FD53
:050A21000FD5F0EA22F0
:1008A500020800E493A3F8E493A34003F68001F261
:1008B50008DFF48029E493A3F85407240CC8C33354
:1008C500C4540F4420C8834004F456800146F6DF23
:1008D500E4800B0102040810204080900B45E47E63
:1008E500019360BCA3FF543F30E509541FFEE49318
:1008F500A360010ECF54C025E060A840B8E493A3DF
:10090500FAE493A3F8E493A3C8C582C8CAC583CA09
:10091500F0A3C8C582C8CAC583CADFE9DEE780BEC1
:010B470000AD
:00000001FF
